{
  "contractName": "CurationCouncilRegistryDelegate",
  "abi": [
    {
      "constant": true,
      "inputs": [],
      "name": "botCoin",
      "outputs": [
        {
          "name": "",
          "type": "address"
        }
      ],
      "payable": false,
      "stateMutability": "view",
      "type": "function"
    },
    {
      "constant": true,
      "inputs": [],
      "name": "name",
      "outputs": [
        {
          "name": "",
          "type": "string"
        }
      ],
      "payable": false,
      "stateMutability": "view",
      "type": "function"
    },
    {
      "constant": false,
      "inputs": [
        {
          "name": "_to",
          "type": "address"
        },
        {
          "name": "_tokenId",
          "type": "uint256"
        }
      ],
      "name": "approve",
      "outputs": [],
      "payable": false,
      "stateMutability": "nonpayable",
      "type": "function"
    },
    {
      "constant": true,
      "inputs": [
        {
          "name": "memberAddress",
          "type": "address"
        }
      ],
      "name": "getStakeAmount",
      "outputs": [
        {
          "name": "",
          "type": "uint256"
        }
      ],
      "payable": false,
      "stateMutability": "view",
      "type": "function"
    },
    {
      "constant": true,
      "inputs": [],
      "name": "totalSupply",
      "outputs": [
        {
          "name": "",
          "type": "uint256"
        }
      ],
      "payable": false,
      "stateMutability": "view",
      "type": "function"
    },
    {
      "constant": true,
      "inputs": [
        {
          "name": "registrationVoteId",
          "type": "uint256"
        }
      ],
      "name": "getNayCount",
      "outputs": [
        {
          "name": "",
          "type": "uint256"
        }
      ],
      "payable": false,
      "stateMutability": "view",
      "type": "function"
    },
    {
      "constant": true,
      "inputs": [
        {
          "name": "_tokenId",
          "type": "uint256"
        }
      ],
      "name": "approvedFor",
      "outputs": [
        {
          "name": "",
          "type": "address"
        }
      ],
      "payable": false,
      "stateMutability": "view",
      "type": "function"
    },
    {
      "constant": true,
      "inputs": [
        {
          "name": "registrationVoteId",
          "type": "uint256"
        },
        {
          "name": "memberAddress",
          "type": "address"
        }
      ],
      "name": "getVotedOnStatus",
      "outputs": [
        {
          "name": "",
          "type": "bool"
        }
      ],
      "payable": false,
      "stateMutability": "view",
      "type": "function"
    },
    {
      "constant": true,
      "inputs": [
        {
          "name": "_owner",
          "type": "address"
        }
      ],
      "name": "tokensOf",
      "outputs": [
        {
          "name": "",
          "type": "uint256[]"
        }
      ],
      "payable": false,
      "stateMutability": "view",
      "type": "function"
    },
    {
      "constant": true,
      "inputs": [
        {
          "name": "_tokenId",
          "type": "uint256"
        }
      ],
      "name": "ownerOf",
      "outputs": [
        {
          "name": "",
          "type": "address"
        }
      ],
      "payable": false,
      "stateMutability": "view",
      "type": "function"
    },
    {
      "constant": true,
      "inputs": [],
      "name": "tallaWallet",
      "outputs": [
        {
          "name": "",
          "type": "address"
        }
      ],
      "payable": false,
      "stateMutability": "view",
      "type": "function"
    },
    {
      "constant": true,
      "inputs": [
        {
          "name": "_owner",
          "type": "address"
        }
      ],
      "name": "balanceOf",
      "outputs": [
        {
          "name": "",
          "type": "uint256"
        }
      ],
      "payable": false,
      "stateMutability": "view",
      "type": "function"
    },
    {
      "constant": true,
      "inputs": [
        {
          "name": "registrationVoteId",
          "type": "uint256"
        }
      ],
      "name": "getYayCount",
      "outputs": [
        {
          "name": "",
          "type": "uint256"
        }
      ],
      "payable": false,
      "stateMutability": "view",
      "type": "function"
    },
    {
      "constant": true,
      "inputs": [
        {
          "name": "developerAddress",
          "type": "address"
        }
      ],
      "name": "registrationVoteExists",
      "outputs": [
        {
          "name": "",
          "type": "bool"
        }
      ],
      "payable": false,
      "stateMutability": "view",
      "type": "function"
    },
    {
      "constant": true,
      "inputs": [],
      "name": "getOwner",
      "outputs": [
        {
          "name": "",
          "type": "address"
        }
      ],
      "payable": false,
      "stateMutability": "view",
      "type": "function"
    },
    {
      "constant": false,
      "inputs": [
        {
          "name": "entryPrice",
          "type": "uint256"
        }
      ],
      "name": "setEntryPrice",
      "outputs": [],
      "payable": false,
      "stateMutability": "nonpayable",
      "type": "function"
    },
    {
      "constant": false,
      "inputs": [
        {
          "name": "_to",
          "type": "address"
        },
        {
          "name": "_tokenId",
          "type": "uint256"
        }
      ],
      "name": "transfer",
      "outputs": [],
      "payable": false,
      "stateMutability": "nonpayable",
      "type": "function"
    },
    {
      "constant": false,
      "inputs": [
        {
          "name": "registrationVoteId",
          "type": "uint256"
        }
      ],
      "name": "setVotedOnStatus",
      "outputs": [],
      "payable": false,
      "stateMutability": "nonpayable",
      "type": "function"
    },
    {
      "constant": false,
      "inputs": [
        {
          "name": "_tokenId",
          "type": "uint256"
        }
      ],
      "name": "takeOwnership",
      "outputs": [],
      "payable": false,
      "stateMutability": "nonpayable",
      "type": "function"
    },
    {
      "constant": false,
      "inputs": [
        {
          "name": "tallaWallet",
          "type": "address"
        }
      ],
      "name": "setTallaWallet",
      "outputs": [],
      "payable": false,
      "stateMutability": "nonpayable",
      "type": "function"
    },
    {
      "constant": false,
      "inputs": [
        {
          "name": "newOwner",
          "type": "address"
        }
      ],
      "name": "transferOwnership",
      "outputs": [],
      "payable": false,
      "stateMutability": "nonpayable",
      "type": "function"
    },
    {
      "constant": true,
      "inputs": [],
      "name": "entryPrice",
      "outputs": [
        {
          "name": "",
          "type": "uint256"
        }
      ],
      "payable": false,
      "stateMutability": "view",
      "type": "function"
    },
    {
      "inputs": [
        {
          "name": "storage_",
          "type": "address"
        }
      ],
      "payable": false,
      "stateMutability": "nonpayable",
      "type": "constructor"
    },
    {
      "anonymous": false,
      "inputs": [
        {
          "indexed": false,
          "name": "registrationVoteId",
          "type": "uint256"
        },
        {
          "indexed": false,
          "name": "initialBlock",
          "type": "uint256"
        },
        {
          "indexed": false,
          "name": "finalBlock",
          "type": "uint256"
        },
        {
          "indexed": false,
          "name": "developerAddress",
          "type": "address"
        },
        {
          "indexed": false,
          "name": "yayCount",
          "type": "uint256"
        },
        {
          "indexed": false,
          "name": "nayCount",
          "type": "uint256"
        },
        {
          "indexed": false,
          "name": "veto",
          "type": "bool"
        }
      ],
      "name": "RegistrationVoteCreated",
      "type": "event"
    },
    {
      "anonymous": false,
      "inputs": [
        {
          "indexed": true,
          "name": "_from",
          "type": "address"
        },
        {
          "indexed": true,
          "name": "_to",
          "type": "address"
        },
        {
          "indexed": false,
          "name": "_tokenId",
          "type": "uint256"
        }
      ],
      "name": "Transfer",
      "type": "event"
    },
    {
      "anonymous": false,
      "inputs": [
        {
          "indexed": true,
          "name": "_owner",
          "type": "address"
        },
        {
          "indexed": true,
          "name": "_approved",
          "type": "address"
        },
        {
          "indexed": false,
          "name": "_tokenId",
          "type": "uint256"
        }
      ],
      "name": "Approval",
      "type": "event"
    },
    {
      "anonymous": false,
      "inputs": [
        {
          "indexed": true,
          "name": "previousOwner",
          "type": "address"
        },
        {
          "indexed": true,
          "name": "newOwner",
          "type": "address"
        }
      ],
      "name": "OwnershipTransferred",
      "type": "event"
    },
    {
      "constant": true,
      "inputs": [],
      "name": "tokenVault",
      "outputs": [
        {
          "name": "",
          "type": "address"
        }
      ],
      "payable": false,
      "stateMutability": "view",
      "type": "function"
    },
    {
      "constant": true,
      "inputs": [],
      "name": "tokenVaultAddress",
      "outputs": [
        {
          "name": "",
          "type": "address"
        }
      ],
      "payable": false,
      "stateMutability": "view",
      "type": "function"
    },
    {
      "constant": false,
      "inputs": [
        {
          "name": "addr",
          "type": "address"
        }
      ],
      "name": "changeTokenVault",
      "outputs": [],
      "payable": false,
      "stateMutability": "nonpayable",
      "type": "function"
    },
    {
      "constant": false,
      "inputs": [
        {
          "name": "stakeAmount",
          "type": "uint256"
        }
      ],
      "name": "joinCouncil",
      "outputs": [],
      "payable": false,
      "stateMutability": "nonpayable",
      "type": "function"
    },
    {
      "constant": false,
      "inputs": [],
      "name": "leaveCouncil",
      "outputs": [],
      "payable": false,
      "stateMutability": "nonpayable",
      "type": "function"
    },
    {
      "constant": false,
      "inputs": [],
      "name": "createRegistrationVote",
      "outputs": [],
      "payable": false,
      "stateMutability": "nonpayable",
      "type": "function"
    },
    {
      "constant": false,
      "inputs": [
        {
          "name": "registrationVoteId",
          "type": "uint256"
        },
        {
          "name": "vote",
          "type": "bool"
        }
      ],
      "name": "castRegistrationVote",
      "outputs": [],
      "payable": false,
      "stateMutability": "nonpayable",
      "type": "function"
    },
    {
      "constant": true,
      "inputs": [
        {
          "name": "registrationVoteId",
          "type": "uint256"
        }
      ],
      "name": "getVoteInitialBlock",
      "outputs": [
        {
          "name": "",
          "type": "uint256"
        }
      ],
      "payable": false,
      "stateMutability": "view",
      "type": "function"
    },
    {
      "constant": true,
      "inputs": [
        {
          "name": "registrationVoteId",
          "type": "uint256"
        }
      ],
      "name": "getVoteFinalBlock",
      "outputs": [
        {
          "name": "",
          "type": "uint256"
        }
      ],
      "payable": false,
      "stateMutability": "view",
      "type": "function"
    }
  ],
  "bytecode": "0x60806040523480156200001157600080fd5b5060405160208062004906833981018060405281019080805190602001909291905050508080818082806000806101000a81548173ffffffffffffffffffffffffffffffffffffffff021916908373ffffffffffffffffffffffffffffffffffffffff1602179055505060008173ffffffffffffffffffffffffffffffffffffffff16141515620000b757620000b633620000c2640100000000026401000000009004565b5b5050505050620001c3565b6000809054906101000a900473ffffffffffffffffffffffffffffffffffffffff1673ffffffffffffffffffffffffffffffffffffffff1663ca446dd9826040518263ffffffff167c010000000000000000000000000000000000000000000000000000000002815260040180807f6f776e65720000000000000000000000000000000000000000000000000000008152506020018273ffffffffffffffffffffffffffffffffffffffff1673ffffffffffffffffffffffffffffffffffffffff168152602001915050600060405180830381600087803b158015620001a757600080fd5b505af1158015620001bc573d6000803e3d6000fd5b5050505050565b61473380620001d36000396000f30060806040526004361061018b576000357c0100000000000000000000000000000000000000000000000000000000900463ffffffff168063047913ce14610190578063063b84fc146101e757806306fdde0314610228578063095ea7b3146102b85780630c2eb4031461030557806318160ddd1461035c578063235e2226146103875780632a6dd48f146103c857806353cf05ac146104355780635a3f26721461049a5780635bc789d9146105325780636352211e1461058957806368743fbd146105f65780636f1d88841461064d57806370a08231146106a45780637202761b146106fb5780637439c42d1461073c5780637a31ae041461077d5780637e6a7282146107d8578063893d20e814610811578063a6e77af114610868578063a9059cbb14610895578063ab3dfb17146108e2578063b2e6ceeb1461090f578063c9d655371461093c578063dcbd32fe14610969578063dce53844146109ac578063ea4e268d146109ef578063ed64bf2914610a06578063f2fde38b14610a1d578063f745adfc14610a60575b600080fd5b34801561019c57600080fd5b506101a5610a8b565b604051808273ffffffffffffffffffffffffffffffffffffffff1673ffffffffffffffffffffffffffffffffffffffff16815260200191505060405180910390f35b3480156101f357600080fd5b5061021260048036038101908080359060200190929190505050610b7d565b6040518082815260200191505060405180910390f35b34801561023457600080fd5b5061023d610b8f565b6040518080602001828103825283818151815260200191508051906020019080838360005b8381101561027d578082015181840152602081019050610262565b50505050905090810190601f1680156102aa5780820380516001836020036101000a031916815260200191505b509250505060405180910390f35b3480156102c457600080fd5b50610303600480360381019080803573ffffffffffffffffffffffffffffffffffffffff16906020019092919080359060200190929190505050610bc8565b005b34801561031157600080fd5b50610346600480360381019080803573ffffffffffffffffffffffffffffffffffffffff169060200190929190505050610d13565b6040518082815260200191505060405180910390f35b34801561036857600080fd5b50610371610e67565b6040518082815260200191505060405180910390f35b34801561039357600080fd5b506103b260048036038101908080359060200190929190505050610f59565b6040518082815260200191505060405180910390f35b3480156103d457600080fd5b506103f360048036038101908080359060200190929190505050611072565b604051808273ffffffffffffffffffffffffffffffffffffffff1673ffffffffffffffffffffffffffffffffffffffff16815260200191505060405180910390f35b34801561044157600080fd5b5061048060048036038101908080359060200190929190803573ffffffffffffffffffffffffffffffffffffffff169060200190929190505050611084565b604051808215151515815260200191505060405180910390f35b3480156104a657600080fd5b506104db600480360381019080803573ffffffffffffffffffffffffffffffffffffffff1690602001909291905050506111e1565b6040518080602001828103825283818151815260200191508051906020019060200280838360005b8381101561051e578082015181840152602081019050610503565b505050509050019250505060405180910390f35b34801561053e57600080fd5b50610547611271565b604051808273ffffffffffffffffffffffffffffffffffffffff1673ffffffffffffffffffffffffffffffffffffffff16815260200191505060405180910390f35b34801561059557600080fd5b506105b460048036038101908080359060200190929190505050611363565b604051808273ffffffffffffffffffffffffffffffffffffffff1673ffffffffffffffffffffffffffffffffffffffff16815260200191505060405180910390f35b34801561060257600080fd5b5061060b6113b6565b604051808273ffffffffffffffffffffffffffffffffffffffff1673ffffffffffffffffffffffffffffffffffffffff16815260200191505060405180910390f35b34801561065957600080fd5b506106626114a8565b604051808273ffffffffffffffffffffffffffffffffffffffff1673ffffffffffffffffffffffffffffffffffffffff16815260200191505060405180910390f35b3480156106b057600080fd5b506106e5600480360381019080803573ffffffffffffffffffffffffffffffffffffffff16906020019092919050505061159a565b6040518082815260200191505060405180910390f35b34801561070757600080fd5b50610726600480360381019080803590602001909291905050506116ee565b6040518082815260200191505060405180910390f35b34801561074857600080fd5b5061076760048036038101908080359060200190929190505050611807565b6040518082815260200191505060405180910390f35b34801561078957600080fd5b506107be600480360381019080803573ffffffffffffffffffffffffffffffffffffffff169060200190929190505050611819565b604051808215151515815260200191505060405180910390f35b3480156107e457600080fd5b5061080f6004803603810190808035906020019092919080351515906020019092919050505061196d565b005b34801561081d57600080fd5b506108266119fe565b604051808273ffffffffffffffffffffffffffffffffffffffff1673ffffffffffffffffffffffffffffffffffffffff16815260200191505060405180910390f35b34801561087457600080fd5b5061089360048036038101908080359060200190929190505050611af0565b005b3480156108a157600080fd5b506108e0600480360381019080803573ffffffffffffffffffffffffffffffffffffffff16906020019092919080359060200190929190505050611c04565b005b3480156108ee57600080fd5b5061090d60048036038101908080359060200190929190505050611c57565b005b34801561091b57600080fd5b5061093a60048036038101908080359060200190929190505050611d97565b005b34801561094857600080fd5b5061096760048036038101908080359060200190929190505050611dc2565b005b34801561097557600080fd5b506109aa600480360381019080803573ffffffffffffffffffffffffffffffffffffffff169060200190929190505050611dce565b005b3480156109b857600080fd5b506109ed600480360381019080803573ffffffffffffffffffffffffffffffffffffffff169060200190929190505050611f34565b005b3480156109fb57600080fd5b50610a0461209a565b005b348015610a1257600080fd5b50610a1b6120a4565b005b348015610a2957600080fd5b50610a5e600480360381019080803573ffffffffffffffffffffffffffffffffffffffff1690602001909291905050506120ae565b005b348015610a6c57600080fd5b50610a75612198565b6040518082815260200191505060405180910390f35b60008060009054906101000a900473ffffffffffffffffffffffffffffffffffffffff1673ffffffffffffffffffffffffffffffffffffffff166321f8a7216040518163ffffffff167c010000000000000000000000000000000000000000000000000000000002815260040180807f626f74436f696e416464726573730000000000000000000000000000000000008152506020019050602060405180830381600087803b158015610b3d57600080fd5b505af1158015610b51573d6000803e3d6000fd5b505050506040513d6020811015610b6757600080fd5b8101908080519060200190929190505050905090565b6000610b888261228a565b9050919050565b6040805190810160405280601781526020017f4375726174696f6e436f756e63696c526567697374727900000000000000000081525081565b6000813373ffffffffffffffffffffffffffffffffffffffff16610beb82611363565b73ffffffffffffffffffffffffffffffffffffffff16141515610c0d57600080fd5b610c1683611363565b91508173ffffffffffffffffffffffffffffffffffffffff168473ffffffffffffffffffffffffffffffffffffffff1614151515610c5357600080fd5b6000610c5e84611072565b73ffffffffffffffffffffffffffffffffffffffff16141580610c98575060008473ffffffffffffffffffffffffffffffffffffffff1614155b15610d0d57610ca783856123a3565b8373ffffffffffffffffffffffffffffffffffffffff168273ffffffffffffffffffffffffffffffffffffffff167f8c5be1e5ebec7d5bd14f71427d1e84f3dd0314c0f7b2291e5b200ac8c7c3b925856040518082815260200191505060405180910390a35b50505050565b60008060009054906101000a900473ffffffffffffffffffffffffffffffffffffffff1673ffffffffffffffffffffffffffffffffffffffff1663bd02d0f58360405180807f7374616b65416d6f756e74000000000000000000000000000000000000000000815250600b018273ffffffffffffffffffffffffffffffffffffffff1673ffffffffffffffffffffffffffffffffffffffff166c0100000000000000000000000002815260140191505060405180910390206040518263ffffffff167c0100000000000000000000000000000000000000000000000000000000028152600401808260001916600019168152602001915050602060405180830381600087803b158015610e2557600080fd5b505af1158015610e39573d6000803e3d6000fd5b505050506040513d6020811015610e4f57600080fd5b81019080805190602001909291905050509050919050565b60008060009054906101000a900473ffffffffffffffffffffffffffffffffffffffff1673ffffffffffffffffffffffffffffffffffffffff1663bd02d0f56040518163ffffffff167c010000000000000000000000000000000000000000000000000000000002815260040180807f746f74616c546f6b656e730000000000000000000000000000000000000000008152506020019050602060405180830381600087803b158015610f1957600080fd5b505af1158015610f2d573d6000803e3d6000fd5b505050506040513d6020811015610f4357600080fd5b8101908080519060200190929190505050905090565b60008060009054906101000a900473ffffffffffffffffffffffffffffffffffffffff1673ffffffffffffffffffffffffffffffffffffffff1663bd02d0f58360405180807f726567697374726174696f6e566f74654e6179436f756e74000000000000000081525060180182815260200191505060405180910390206040518263ffffffff167c0100000000000000000000000000000000000000000000000000000000028152600401808260001916600019168152602001915050602060405180830381600087803b15801561103057600080fd5b505af1158015611044573d6000803e3d6000fd5b505050506040513d602081101561105a57600080fd5b81019080805190602001909291905050509050919050565b600061107d826124c8565b9050919050565b60008060009054906101000a900473ffffffffffffffffffffffffffffffffffffffff1673ffffffffffffffffffffffffffffffffffffffff16637ae1cfca848460405180807f766f7465644f6e000000000000000000000000000000000000000000000000008152506007018381526020018273ffffffffffffffffffffffffffffffffffffffff1673ffffffffffffffffffffffffffffffffffffffff166c010000000000000000000000000281526014019250505060405180910390206040518263ffffffff167c0100000000000000000000000000000000000000000000000000000000028152600401808260001916600019168152602001915050602060405180830381600087803b15801561119e57600080fd5b505af11580156111b2573d6000803e3d6000fd5b505050506040513d60208110156111c857600080fd5b8101908080519060200190929190505050905092915050565b60606000606060006111f28561159a565b9250826040519080825280602002602001820160405280156112235781602001602082028038833980820191505090505b509150600090505b828110156112665761123d85826125e1565b828281518110151561124b57fe5b9060200190602002018181525050808060010191505061122b565b819350505050919050565b60008060009054906101000a900473ffffffffffffffffffffffffffffffffffffffff1673ffffffffffffffffffffffffffffffffffffffff166321f8a7216040518163ffffffff167c010000000000000000000000000000000000000000000000000000000002815260040180807f746f6b656e5661756c74416464726573730000000000000000000000000000008152506020019050602060405180830381600087803b15801561132357600080fd5b505af1158015611337573d6000803e3d6000fd5b505050506040513d602081101561134d57600080fd5b8101908080519060200190929190505050905090565b60008061136f8361273e565b9050600073ffffffffffffffffffffffffffffffffffffffff168173ffffffffffffffffffffffffffffffffffffffff16141515156113ad57600080fd5b80915050919050565b60008060009054906101000a900473ffffffffffffffffffffffffffffffffffffffff1673ffffffffffffffffffffffffffffffffffffffff166321f8a7216040518163ffffffff167c010000000000000000000000000000000000000000000000000000000002815260040180807f746f6b656e5661756c74416464726573730000000000000000000000000000008152506020019050602060405180830381600087803b15801561146857600080fd5b505af115801561147c573d6000803e3d6000fd5b505050506040513d602081101561149257600080fd5b8101908080519060200190929190505050905090565b60008060009054906101000a900473ffffffffffffffffffffffffffffffffffffffff1673ffffffffffffffffffffffffffffffffffffffff166321f8a7216040518163ffffffff167c010000000000000000000000000000000000000000000000000000000002815260040180807f74616c6c6157616c6c65740000000000000000000000000000000000000000008152506020019050602060405180830381600087803b15801561155a57600080fd5b505af115801561156e573d6000803e3d6000fd5b505050506040513d602081101561158457600080fd5b8101908080519060200190929190505050905090565b60008060009054906101000a900473ffffffffffffffffffffffffffffffffffffffff1673ffffffffffffffffffffffffffffffffffffffff1663bd02d0f58360405180807f6f776e657242616c616e63657300000000000000000000000000000000000000815250600d018273ffffffffffffffffffffffffffffffffffffffff1673ffffffffffffffffffffffffffffffffffffffff166c0100000000000000000000000002815260140191505060405180910390206040518263ffffffff167c0100000000000000000000000000000000000000000000000000000000028152600401808260001916600019168152602001915050602060405180830381600087803b1580156116ac57600080fd5b505af11580156116c0573d6000803e3d6000fd5b505050506040513d60208110156116d657600080fd5b81019080805190602001909291905050509050919050565b60008060009054906101000a900473ffffffffffffffffffffffffffffffffffffffff1673ffffffffffffffffffffffffffffffffffffffff1663bd02d0f58360405180807f726567697374726174696f6e566f7465596179436f756e74000000000000000081525060180182815260200191505060405180910390206040518263ffffffff167c0100000000000000000000000000000000000000000000000000000000028152600401808260001916600019168152602001915050602060405180830381600087803b1580156117c557600080fd5b505af11580156117d9573d6000803e3d6000fd5b505050506040513d60208110156117ef57600080fd5b81019080805190602001909291905050509050919050565b600061181282612857565b9050919050565b60008060009054906101000a900473ffffffffffffffffffffffffffffffffffffffff1673ffffffffffffffffffffffffffffffffffffffff16637ae1cfca8360405180807f726567697374726174696f6e566f7465457869737473000000000000000000008152506016018273ffffffffffffffffffffffffffffffffffffffff1673ffffffffffffffffffffffffffffffffffffffff166c0100000000000000000000000002815260140191505060405180910390206040518263ffffffff167c0100000000000000000000000000000000000000000000000000000000028152600401808260001916600019168152602001915050602060405180830381600087803b15801561192b57600080fd5b505af115801561193f573d6000803e3d6000fd5b505050506040513d602081101561195557600080fd5b81019080805190602001909291905050509050919050565b6119778282612970565b61197f611271565b73ffffffffffffffffffffffffffffffffffffffff1663538ed7286040518163ffffffff167c0100000000000000000000000000000000000000000000000000000000028152600401600060405180830381600087803b1580156119e257600080fd5b505af11580156119f6573d6000803e3d6000fd5b505050505050565b60008060009054906101000a900473ffffffffffffffffffffffffffffffffffffffff1673ffffffffffffffffffffffffffffffffffffffff166321f8a7216040518163ffffffff167c010000000000000000000000000000000000000000000000000000000002815260040180807f6f776e65720000000000000000000000000000000000000000000000000000008152506020019050602060405180830381600087803b158015611ab057600080fd5b505af1158015611ac4573d6000803e3d6000fd5b505050506040513d6020811015611ada57600080fd5b8101908080519060200190929190505050905090565b611af86119fe565b73ffffffffffffffffffffffffffffffffffffffff163373ffffffffffffffffffffffffffffffffffffffff16141515611b3157600080fd5b6000809054906101000a900473ffffffffffffffffffffffffffffffffffffffff1673ffffffffffffffffffffffffffffffffffffffff1663e2a4853a826040518263ffffffff167c010000000000000000000000000000000000000000000000000000000002815260040180807f656e747279507269636500000000000000000000000000000000000000000000815250602001828152602001915050600060405180830381600087803b158015611be957600080fd5b505af1158015611bfd573d6000803e3d6000fd5b5050505050565b803373ffffffffffffffffffffffffffffffffffffffff16611c2582611363565b73ffffffffffffffffffffffffffffffffffffffff16141515611c4757600080fd5b611c523384846129c3565b505050565b6000809054906101000a900473ffffffffffffffffffffffffffffffffffffffff1673ffffffffffffffffffffffffffffffffffffffff1663abfdcced823360405180807f766f7465644f6e000000000000000000000000000000000000000000000000008152506007018381526020018273ffffffffffffffffffffffffffffffffffffffff1673ffffffffffffffffffffffffffffffffffffffff166c0100000000000000000000000002815260140192505050604051809103902060016040518363ffffffff167c01000000000000000000000000000000000000000000000000000000000281526004018083600019166000191681526020018215151515815260200192505050600060405180830381600087803b158015611d7c57600080fd5b505af1158015611d90573d6000803e3d6000fd5b5050505050565b611da13382612b0c565b1515611dac57600080fd5b611dbf611db882611363565b33836129c3565b50565b611dcb81612b4d565b50565b611dd66119fe565b73ffffffffffffffffffffffffffffffffffffffff163373ffffffffffffffffffffffffffffffffffffffff16141515611e0f57600080fd5b60008173ffffffffffffffffffffffffffffffffffffffff1614151515611e3557600080fd5b6000809054906101000a900473ffffffffffffffffffffffffffffffffffffffff1673ffffffffffffffffffffffffffffffffffffffff1663ca446dd9826040518263ffffffff167c010000000000000000000000000000000000000000000000000000000002815260040180807f74616c6c6157616c6c65740000000000000000000000000000000000000000008152506020018273ffffffffffffffffffffffffffffffffffffffff1673ffffffffffffffffffffffffffffffffffffffff168152602001915050600060405180830381600087803b158015611f1957600080fd5b505af1158015611f2d573d6000803e3d6000fd5b5050505050565b611f3c6119fe565b73ffffffffffffffffffffffffffffffffffffffff163373ffffffffffffffffffffffffffffffffffffffff16141515611f7557600080fd5b60008173ffffffffffffffffffffffffffffffffffffffff1614151515611f9b57600080fd5b6000809054906101000a900473ffffffffffffffffffffffffffffffffffffffff1673ffffffffffffffffffffffffffffffffffffffff1663ca446dd9826040518263ffffffff167c010000000000000000000000000000000000000000000000000000000002815260040180807f746f6b656e5661756c74416464726573730000000000000000000000000000008152506020018273ffffffffffffffffffffffffffffffffffffffff1673ffffffffffffffffffffffffffffffffffffffff168152602001915050600060405180830381600087803b15801561207f57600080fd5b505af1158015612093573d6000803e3d6000fd5b5050505050565b6120a2612da4565b565b6120ac6134df565b565b6120b66119fe565b73ffffffffffffffffffffffffffffffffffffffff163373ffffffffffffffffffffffffffffffffffffffff161415156120ef57600080fd5b600073ffffffffffffffffffffffffffffffffffffffff168173ffffffffffffffffffffffffffffffffffffffff161415151561212b57600080fd5b8073ffffffffffffffffffffffffffffffffffffffff1661214a6119fe565b73ffffffffffffffffffffffffffffffffffffffff167f8be0079c531659141344cd1fd0a4f28419497f9722a3daafe3b4186f6b6457e060405160405180910390a36121958161370a565b50565b60008060009054906101000a900473ffffffffffffffffffffffffffffffffffffffff1673ffffffffffffffffffffffffffffffffffffffff1663bd02d0f56040518163ffffffff167c010000000000000000000000000000000000000000000000000000000002815260040180807f656e7472795072696365000000000000000000000000000000000000000000008152506020019050602060405180830381600087803b15801561224a57600080fd5b505af115801561225e573d6000803e3d6000fd5b505050506040513d602081101561227457600080fd5b8101908080519060200190929190505050905090565b60008060009054906101000a900473ffffffffffffffffffffffffffffffffffffffff1673ffffffffffffffffffffffffffffffffffffffff1663bd02d0f58360405180807f726567697374726174696f6e566f746546696e616c426c6f636b000000000000815250601a0182815260200191505060405180910390206040518263ffffffff167c0100000000000000000000000000000000000000000000000000000000028152600401808260001916600019168152602001915050602060405180830381600087803b15801561236157600080fd5b505af1158015612375573d6000803e3d6000fd5b505050506040513d602081101561238b57600080fd5b81019080805190602001909291905050509050919050565b6000809054906101000a900473ffffffffffffffffffffffffffffffffffffffff1673ffffffffffffffffffffffffffffffffffffffff1663ca446dd98360405180807f746f6b656e417070726f76616c73000000000000000000000000000000000000815250600e018281526020019150506040518091039020836040518363ffffffff167c01000000000000000000000000000000000000000000000000000000000281526004018083600019166000191681526020018273ffffffffffffffffffffffffffffffffffffffff1673ffffffffffffffffffffffffffffffffffffffff16815260200192505050600060405180830381600087803b1580156124ac57600080fd5b505af11580156124c0573d6000803e3d6000fd5b505050505050565b60008060009054906101000a900473ffffffffffffffffffffffffffffffffffffffff1673ffffffffffffffffffffffffffffffffffffffff166321f8a7218360405180807f746f6b656e417070726f76616c73000000000000000000000000000000000000815250600e0182815260200191505060405180910390206040518263ffffffff167c0100000000000000000000000000000000000000000000000000000000028152600401808260001916600019168152602001915050602060405180830381600087803b15801561259f57600080fd5b505af11580156125b3573d6000803e3d6000fd5b505050506040513d60208110156125c957600080fd5b81019080805190602001909291905050509050919050565b60008060009054906101000a900473ffffffffffffffffffffffffffffffffffffffff1673ffffffffffffffffffffffffffffffffffffffff1663bd02d0f5848460405180807f6f776e6564546f6b656e73000000000000000000000000000000000000000000815250600b018373ffffffffffffffffffffffffffffffffffffffff1673ffffffffffffffffffffffffffffffffffffffff166c010000000000000000000000000281526014018281526020019250505060405180910390206040518263ffffffff167c0100000000000000000000000000000000000000000000000000000000028152600401808260001916600019168152602001915050602060405180830381600087803b1580156126fb57600080fd5b505af115801561270f573d6000803e3d6000fd5b505050506040513d602081101561272557600080fd5b8101908080519060200190929190505050905092915050565b60008060009054906101000a900473ffffffffffffffffffffffffffffffffffffffff1673ffffffffffffffffffffffffffffffffffffffff166321f8a7218360405180807f746f6b656e4f776e657273000000000000000000000000000000000000000000815250600b0182815260200191505060405180910390206040518263ffffffff167c0100000000000000000000000000000000000000000000000000000000028152600401808260001916600019168152602001915050602060405180830381600087803b15801561281557600080fd5b505af1158015612829573d6000803e3d6000fd5b505050506040513d602081101561283f57600080fd5b81019080805190602001909291905050509050919050565b60008060009054906101000a900473ffffffffffffffffffffffffffffffffffffffff1673ffffffffffffffffffffffffffffffffffffffff1663bd02d0f58360405180807f726567697374726174696f6e566f7465496e697469616c426c6f636b00000000815250601c0182815260200191505060405180910390206040518263ffffffff167c0100000000000000000000000000000000000000000000000000000000028152600401808260001916600019168152602001915050602060405180830381600087803b15801561292e57600080fd5b505af1158015612942573d6000803e3d6000fd5b505050506040513d602081101561295857600080fd5b81019080805190602001909291905050509050919050565b61297a8233611084565b15151561298657600080fd5b80156129a35761299e8261299933610d13565b613809565b6129b6565b6129b5826129b033610d13565b613912565b5b6129bf82611c57565b5050565b600073ffffffffffffffffffffffffffffffffffffffff168273ffffffffffffffffffffffffffffffffffffffff16141515156129ff57600080fd5b612a0881611363565b73ffffffffffffffffffffffffffffffffffffffff168273ffffffffffffffffffffffffffffffffffffffff1614151515612a4257600080fd5b8273ffffffffffffffffffffffffffffffffffffffff16612a6282611363565b73ffffffffffffffffffffffffffffffffffffffff16141515612a8457600080fd5b612a8e8382613a1b565b612a988382613abc565b612aa28282613b87565b8173ffffffffffffffffffffffffffffffffffffffff168373ffffffffffffffffffffffffffffffffffffffff167fddf252ad1be2c89b69c2b068fc378daa952ba7f163c4a11628f55a4df523b3ef836040518082815260200191505060405180910390a3505050565b60008273ffffffffffffffffffffffffffffffffffffffff16612b2e83611072565b73ffffffffffffffffffffffffffffffffffffffff1614905092915050565b612b55610a8b565b73ffffffffffffffffffffffffffffffffffffffff166323b872dd3330846040518463ffffffff167c0100000000000000000000000000000000000000000000000000000000028152600401808473ffffffffffffffffffffffffffffffffffffffff1673ffffffffffffffffffffffffffffffffffffffff1681526020018373ffffffffffffffffffffffffffffffffffffffff1673ffffffffffffffffffffffffffffffffffffffff1681526020018281526020019350505050602060405180830381600087803b158015612c2b57600080fd5b505af1158015612c3f573d6000803e3d6000fd5b505050506040513d6020811015612c5557600080fd5b81019080805190602001909291905050501515612c7157600080fd5b6000809054906101000a900473ffffffffffffffffffffffffffffffffffffffff1673ffffffffffffffffffffffffffffffffffffffff1663e2a4853a3360405180807f7374616b65416d6f756e74000000000000000000000000000000000000000000815250600b018273ffffffffffffffffffffffffffffffffffffffff1673ffffffffffffffffffffffffffffffffffffffff166c010000000000000000000000000281526014019150506040518091039020836040518363ffffffff167c010000000000000000000000000000000000000000000000000000000002815260040180836000191660001916815260200182815260200192505050600060405180830381600087803b158015612d8957600080fd5b505af1158015612d9d573d6000803e3d6000fd5b5050505050565b6000806000803373ffffffffffffffffffffffffffffffffffffffff1614151515612dce57600080fd5b612dd733611819565b151515612de357600080fd5b439250620186a083019150612e096001612dfb610e67565b613c0190919063ffffffff16565b9050612e153382613c1f565b6000809054906101000a900473ffffffffffffffffffffffffffffffffffffffff1673ffffffffffffffffffffffffffffffffffffffff1663abfdcced3360405180807f726567697374726174696f6e566f7465457869737473000000000000000000008152506016018273ffffffffffffffffffffffffffffffffffffffff1673ffffffffffffffffffffffffffffffffffffffff166c01000000000000000000000000028152601401915050604051809103902060016040518363ffffffff167c01000000000000000000000000000000000000000000000000000000000281526004018083600019166000191681526020018215151515815260200192505050600060405180830381600087803b158015612f3257600080fd5b505af1158015612f46573d6000803e3d6000fd5b505050506000809054906101000a900473ffffffffffffffffffffffffffffffffffffffff1673ffffffffffffffffffffffffffffffffffffffff1663ca446dd98260405180807f726567697374726174696f6e566f7465446576656c6f706572416464726573738152506020018281526020019150506040518091039020336040518363ffffffff167c01000000000000000000000000000000000000000000000000000000000281526004018083600019166000191681526020018273ffffffffffffffffffffffffffffffffffffffff1673ffffffffffffffffffffffffffffffffffffffff16815260200192505050600060405180830381600087803b15801561305357600080fd5b505af1158015613067573d6000803e3d6000fd5b505050506000809054906101000a900473ffffffffffffffffffffffffffffffffffffffff1673ffffffffffffffffffffffffffffffffffffffff1663e2a4853a8260405180807f726567697374726174696f6e566f7465496e697469616c426c6f636b00000000815250601c018281526020019150506040518091039020856040518363ffffffff167c010000000000000000000000000000000000000000000000000000000002815260040180836000191660001916815260200182815260200192505050600060405180830381600087803b15801561314857600080fd5b505af115801561315c573d6000803e3d6000fd5b505050506000809054906101000a900473ffffffffffffffffffffffffffffffffffffffff1673ffffffffffffffffffffffffffffffffffffffff1663e2a4853a8260405180807f726567697374726174696f6e566f746546696e616c426c6f636b000000000000815250601a018281526020019150506040518091039020846040518363ffffffff167c010000000000000000000000000000000000000000000000000000000002815260040180836000191660001916815260200182815260200192505050600060405180830381600087803b15801561323d57600080fd5b505af1158015613251573d6000803e3d6000fd5b505050506000809054906101000a900473ffffffffffffffffffffffffffffffffffffffff1673ffffffffffffffffffffffffffffffffffffffff1663e2a4853a8260405180807f726567697374726174696f6e566f7465596179436f756e740000000000000000815250601801828152602001915050604051809103902060006040518363ffffffff167c010000000000000000000000000000000000000000000000000000000002815260040180836000191660001916815260200182815260200192505050600060405180830381600087803b15801561333357600080fd5b505af1158015613347573d6000803e3d6000fd5b505050506000809054906101000a900473ffffffffffffffffffffffffffffffffffffffff1673ffffffffffffffffffffffffffffffffffffffff1663e2a4853a8260405180807f726567697374726174696f6e566f74654e6179436f756e740000000000000000815250601801828152602001915050604051809103902060006040518363ffffffff167c010000000000000000000000000000000000000000000000000000000002815260040180836000191660001916815260200182815260200192505050600060405180830381600087803b15801561342957600080fd5b505af115801561343d573d6000803e3d6000fd5b505050507f7fbc806a315ef36b3174eaf05d9420464f2bb0105ac87536eb88531485457695818484336000806000604051808881526020018781526020018681526020018573ffffffffffffffffffffffffffffffffffffffff1673ffffffffffffffffffffffffffffffffffffffff1681526020018481526020018381526020018215151515815260200197505050505050505060405180910390a1505050565b6134e7610a8b565b73ffffffffffffffffffffffffffffffffffffffff1663a9059cbb3361350c33610d13565b6040518363ffffffff167c0100000000000000000000000000000000000000000000000000000000028152600401808373ffffffffffffffffffffffffffffffffffffffff1673ffffffffffffffffffffffffffffffffffffffff16815260200182815260200192505050602060405180830381600087803b15801561359157600080fd5b505af11580156135a5573d6000803e3d6000fd5b505050506040513d60208110156135bb57600080fd5b810190808051906020019092919050505015156135d757600080fd5b6000809054906101000a900473ffffffffffffffffffffffffffffffffffffffff1673ffffffffffffffffffffffffffffffffffffffff1663e2a4853a3360405180807f7374616b65416d6f756e74000000000000000000000000000000000000000000815250600b018273ffffffffffffffffffffffffffffffffffffffff1673ffffffffffffffffffffffffffffffffffffffff166c01000000000000000000000000028152601401915050604051809103902060006040518363ffffffff167c010000000000000000000000000000000000000000000000000000000002815260040180836000191660001916815260200182815260200192505050600060405180830381600087803b1580156136f057600080fd5b505af1158015613704573d6000803e3d6000fd5b50505050565b6000809054906101000a900473ffffffffffffffffffffffffffffffffffffffff1673ffffffffffffffffffffffffffffffffffffffff1663ca446dd9826040518263ffffffff167c010000000000000000000000000000000000000000000000000000000002815260040180807f6f776e65720000000000000000000000000000000000000000000000000000008152506020018273ffffffffffffffffffffffffffffffffffffffff1673ffffffffffffffffffffffffffffffffffffffff168152602001915050600060405180830381600087803b1580156137ee57600080fd5b505af1158015613802573d6000803e3d6000fd5b5050505050565b6000613814836116ee565b90506000809054906101000a900473ffffffffffffffffffffffffffffffffffffffff1673ffffffffffffffffffffffffffffffffffffffff1663e2a4853a8460405180807f726567697374726174696f6e566f7465596179436f756e74000000000000000081525060180182815260200191505060405180910390208484016040518363ffffffff167c010000000000000000000000000000000000000000000000000000000002815260040180836000191660001916815260200182815260200192505050600060405180830381600087803b1580156138f557600080fd5b505af1158015613909573d6000803e3d6000fd5b50505050505050565b600061391d83610f59565b90506000809054906101000a900473ffffffffffffffffffffffffffffffffffffffff1673ffffffffffffffffffffffffffffffffffffffff1663e2a4853a8460405180807f726567697374726174696f6e566f74654e6179436f756e74000000000000000081525060180182815260200191505060405180910390208484016040518363ffffffff167c010000000000000000000000000000000000000000000000000000000002815260040180836000191660001916815260200182815260200192505050600060405180830381600087803b1580156139fe57600080fd5b505af1158015613a12573d6000803e3d6000fd5b50505050505050565b8173ffffffffffffffffffffffffffffffffffffffff16613a3b82611363565b73ffffffffffffffffffffffffffffffffffffffff16141515613a5d57600080fd5b613a688160006123a3565b60008273ffffffffffffffffffffffffffffffffffffffff167f8c5be1e5ebec7d5bd14f71427d1e84f3dd0314c0f7b2291e5b200ac8c7c3b925836040518082815260200191505060405180910390a35050565b60008060008473ffffffffffffffffffffffffffffffffffffffff16613ae185611363565b73ffffffffffffffffffffffffffffffffffffffff16141515613b0357600080fd5b613b0c84613cb9565b9250613b2a6001613b1c8761159a565b613dd290919063ffffffff16565b9150613b3685836125e1565b9050613b43846000613deb565b613b4e858483613f10565b613b5a85836000613f10565b613b638561404d565b613b6e84600061419b565b613b78818461419b565b613b80614294565b5050505050565b60008073ffffffffffffffffffffffffffffffffffffffff16613ba98361273e565b73ffffffffffffffffffffffffffffffffffffffff16141515613bcb57600080fd5b613bd58284613deb565b613bde8361159a565b9050613bea8383614380565b613bf4828261419b565b613bfc6144cd565b505050565b6000808284019050838110151515613c1557fe5b8091505092915050565b600073ffffffffffffffffffffffffffffffffffffffff168273ffffffffffffffffffffffffffffffffffffffff1614151515613c5b57600080fd5b613c658282613b87565b8173ffffffffffffffffffffffffffffffffffffffff1660007fddf252ad1be2c89b69c2b068fc378daa952ba7f163c4a11628f55a4df523b3ef836040518082815260200191505060405180910390a35050565b60008060009054906101000a900473ffffffffffffffffffffffffffffffffffffffff1673ffffffffffffffffffffffffffffffffffffffff1663bd02d0f58360405180807f6f776e6564546f6b656e73496e6465780000000000000000000000000000000081525060100182815260200191505060405180910390206040518263ffffffff167c0100000000000000000000000000000000000000000000000000000000028152600401808260001916600019168152602001915050602060405180830381600087803b158015613d9057600080fd5b505af1158015613da4573d6000803e3d6000fd5b505050506040513d6020811015613dba57600080fd5b81019080805190602001909291905050509050919050565b6000828211151515613de057fe5b818303905092915050565b6000809054906101000a900473ffffffffffffffffffffffffffffffffffffffff1673ffffffffffffffffffffffffffffffffffffffff1663ca446dd98360405180807f746f6b656e4f776e657273000000000000000000000000000000000000000000815250600b018281526020019150506040518091039020836040518363ffffffff167c01000000000000000000000000000000000000000000000000000000000281526004018083600019166000191681526020018273ffffffffffffffffffffffffffffffffffffffff1673ffffffffffffffffffffffffffffffffffffffff16815260200192505050600060405180830381600087803b158015613ef457600080fd5b505af1158015613f08573d6000803e3d6000fd5b505050505050565b6000809054906101000a900473ffffffffffffffffffffffffffffffffffffffff1673ffffffffffffffffffffffffffffffffffffffff1663e2a4853a848460405180807f6f776e6564546f6b656e73000000000000000000000000000000000000000000815250600b018373ffffffffffffffffffffffffffffffffffffffff1673ffffffffffffffffffffffffffffffffffffffff166c01000000000000000000000000028152601401828152602001925050506040518091039020836040518363ffffffff167c010000000000000000000000000000000000000000000000000000000002815260040180836000191660001916815260200182815260200192505050600060405180830381600087803b15801561403057600080fd5b505af1158015614044573d6000803e3d6000fd5b50505050505050565b6000809054906101000a900473ffffffffffffffffffffffffffffffffffffffff1673ffffffffffffffffffffffffffffffffffffffff1663e2a4853a8260405180807f6f776e657242616c616e63657300000000000000000000000000000000000000815250600d018273ffffffffffffffffffffffffffffffffffffffff1673ffffffffffffffffffffffffffffffffffffffff166c01000000000000000000000000028152601401915050604051809103902061411f60016141118661159a565b613dd290919063ffffffff16565b6040518363ffffffff167c010000000000000000000000000000000000000000000000000000000002815260040180836000191660001916815260200182815260200192505050600060405180830381600087803b15801561418057600080fd5b505af1158015614194573d6000803e3d6000fd5b5050505050565b6000809054906101000a900473ffffffffffffffffffffffffffffffffffffffff1673ffffffffffffffffffffffffffffffffffffffff1663e2a4853a8360405180807f6f776e6564546f6b656e73496e646578000000000000000000000000000000008152506010018281526020019150506040518091039020836040518363ffffffff167c010000000000000000000000000000000000000000000000000000000002815260040180836000191660001916815260200182815260200192505050600060405180830381600087803b15801561427857600080fd5b505af115801561428c573d6000803e3d6000fd5b505050505050565b6000809054906101000a900473ffffffffffffffffffffffffffffffffffffffff1673ffffffffffffffffffffffffffffffffffffffff1663e2a4853a6142ec60016142de610e67565b613dd290919063ffffffff16565b6040518263ffffffff167c010000000000000000000000000000000000000000000000000000000002815260040180807f746f74616c546f6b656e73000000000000000000000000000000000000000000815250602001828152602001915050600060405180830381600087803b15801561436657600080fd5b505af115801561437a573d6000803e3d6000fd5b50505050565b6000809054906101000a900473ffffffffffffffffffffffffffffffffffffffff1673ffffffffffffffffffffffffffffffffffffffff1663e2a4853a836143c78561159a565b60405180807f6f776e6564546f6b656e73000000000000000000000000000000000000000000815250600b018373ffffffffffffffffffffffffffffffffffffffff1673ffffffffffffffffffffffffffffffffffffffff166c01000000000000000000000000028152601401828152602001925050506040518091039020836040518363ffffffff167c010000000000000000000000000000000000000000000000000000000002815260040180836000191660001916815260200182815260200192505050600060405180830381600087803b1580156144a857600080fd5b505af11580156144bc573d6000803e3d6000fd5b505050506144c9826145b9565b5050565b6000809054906101000a900473ffffffffffffffffffffffffffffffffffffffff1673ffffffffffffffffffffffffffffffffffffffff1663e2a4853a6145256001614517610e67565b613c0190919063ffffffff16565b6040518263ffffffff167c010000000000000000000000000000000000000000000000000000000002815260040180807f746f74616c546f6b656e73000000000000000000000000000000000000000000815250602001828152602001915050600060405180830381600087803b15801561459f57600080fd5b505af11580156145b3573d6000803e3d6000fd5b50505050565b6000809054906101000a900473ffffffffffffffffffffffffffffffffffffffff1673ffffffffffffffffffffffffffffffffffffffff1663e2a4853a8260405180807f6f776e657242616c616e63657300000000000000000000000000000000000000815250600d018273ffffffffffffffffffffffffffffffffffffffff1673ffffffffffffffffffffffffffffffffffffffff166c01000000000000000000000000028152601401915050604051809103902061468b600161467d8661159a565b613c0190919063ffffffff16565b6040518363ffffffff167c010000000000000000000000000000000000000000000000000000000002815260040180836000191660001916815260200182815260200192505050600060405180830381600087803b1580156146ec57600080fd5b505af1158015614700573d6000803e3d6000fd5b50505050505600a165627a7a72305820ee1e81c9b18396f21e4eae026fc61c6820bfc465d713de919e1e5ff2567450800029",
  "source": "pragma solidity ^0.4.18;\n\nimport \"../Registry/CurationCouncilRegistry.sol\";\nimport \"./TokenVaultDelegate.sol\";\n\n/**\n * @title CurationCouncilRegistryDelegate\n * @dev Delegate contract for functionality that handles curation of developers on the platform.\n */\ncontract CurationCouncilRegistryDelegate is CurationCouncilRegistry {\n\n  string public constant name = \"CurationCouncilRegistry\";\n\n  /**\n  * @dev Constructor for CurationCouncilRegistryDelegate\n  * @param storage_ address of a BaseStorage contract\n  */\n  constructor(BaseStorage storage_)\n    CurationCouncilRegistry(storage_)\n    public\n  {\n  }\n\n  function tokenVault() public view returns (TokenVault) {\n    return TokenVault(_storage.getAddress('tokenVaultAddress'));\n  }\n\n  function tokenVaultAddress() public view returns (address) {\n    return _storage.getAddress('tokenVaultAddress');\n  }\n\n  function changeTokenVault(address addr) onlyOwner public {\n    require(addr != 0x0);\n    _storage.setAddress('tokenVaultAddress', addr);\n  }\n\n  /**\n  * @dev Join council by staking BOTC \n  * @param stakeAmount amount of BOTC in wei\n  */\n  function joinCouncil(uint256 stakeAmount)\n    public\n  {\n    super.joinCouncil(stakeAmount);\n  }\n\n  /**\n  * @dev Leave council staked BOTC will be returned by contract\n  */\n  function leaveCouncil()\n    public\n  {\n    super.leaveCouncil();\n  }\n\n  /**\n  * @dev Creates a new registration vote\n  */\n  function createRegistrationVote() public {\n    super.createRegistrationVote();\n  }\n\n  /**\n  * @dev Casts registration vote\n  * @param registrationVoteId The ID of the developer registration vote\n  * @param vote true for yay false for nay\n  */\n  function castRegistrationVote(\n    uint256 registrationVoteId,\n    bool vote\n  )\n    public\n  {\n    super.castRegistrationVote(registrationVoteId, vote);\n    tokenVault().applyCuratorReward();\n  }\n\n  /**\n  * @dev Get initial block height where the vote starts\n  * @param registrationVoteId The ID of the developer registration vote\n  * @return uint256 ETH block height where the vote starts\n  */\n  function getVoteInitialBlock(uint256 registrationVoteId) public view returns (uint256) {\n    return super.getVoteInitialBlock(registrationVoteId);\n  }\n\n  /**\n  * @dev Get final block height where the vote ends\n  * @param registrationVoteId The ID of the developer registration vote\n  * @return uint256 ETH block height where the vote ends\n  */\n  function getVoteFinalBlock(uint256 registrationVoteId) public view returns (uint256) {\n    return super.getVoteFinalBlock(registrationVoteId);\n  }\n\n}\n",
  "sourcePath": "/Volumes/workspace/_projects/talla/botchain/contracts/Delegates/CurationCouncilRegistryDelegate.sol",
  "compiler": {
    "name": "solc",
    "version": "0.4.24+commit.e67f0147.Emscripten.clang"
  },
  "schemaVersion": "2.0.1",
  "updatedAt": "2018-07-10T23:58:14.608Z"
}